:020000040000FA
:060000000A128A11D32F41
:10000800730872047104700403190B280C284F2814
:10001800F901F90A1C280130F8000310F00DF10D60
:10002800F20DF30DF80B11280130F8007808F907E4
:10003800F31F1F2820280F2873087702031D2E2876
:1000480072087602031D2E2871087502031D2E28DA
:1000580070087402031C3128322840287008F40202
:100068007108031C710FF5027208031C720FF60267
:100078007308031C730FF70201300310F30CF20C22
:10008800F10CF00CFF3E031D41280130F902031D5D
:100098004E284F2820287708F3007608F2007508C4
:1000A800F1007408F000080083160313CD00AD308A
:1000B800B1003108BA00BC2F253050060319652855
:1000C800662872285008B1004D088400310883134F
:1000D80080000130B1003108CD07BC2FC101C20139
:1000E800BF01C0012C0884000A168A1100200A12D8
:1000F8008A110A168A155C230A128A11031C85289C
:100108008628C62883160313C101C2010A30F000ED
:100118000030F100831603134208F3004108F2008F
:100128000A168A1558240A128A11710883160313AD
:10013800C2007008C1002C0884000A168A11002029
:100148000A128A11D03EB100FF3003180030B20005
:100158003108C1070318C20A3208C2070130B100CA
:100168003108AC072C0884000A168A1100200A12EC
:100178008A110A168A155C230A128A110318C528DF
:10018800C6288A28831603132C0884000A168A11A5
:1001980000200A128A112E3A031DD328D4281929BF
:1001A80040170130B1003108AC07CE01CF01082952
:1001B8000A30F0000030F100831603134F08F300F3
:1001C8004E08F2000A168A1558240A128A11710874
:1001D80083160313CF007008CE002C0884000A167B
:1001E8008A1100200A128A11D03EB100FF3003188C
:1001F8000030B2003108CE070318CF0A3208CF0703
:100208000130B1003108AC072C0884000A168A11A5
:1002180000200A128A110A168A155C230A128A110A
:10022800031817291829DC281F29CE01CF014016E9
:100238001F2940153B29013083160313AC07FF30F3
:100248002C0784000A168A1100200A128A11D0008D
:10025800B100B2013208003A03193329BC2F310822
:10026800003A0319CE2F663A03191D29BC2F003016
:100278003F05B10007304005B200310832040319C8
:1002880046294729F92E401E4A294B294F2906306D
:10029800CE000030CF003A08840083130008C9005C
:1002A800840A0008CA00840A0008CB00840A0008EF
:1002B800CC000430B1003108BA074C08F3004B08F1
:1002C800F2004A08F1004908F0000030F700003059
:1002D800F6000030F5000030F4000A168A115421A7
:1002E8000A128A11031879297A2997298316031380
:1002F8004C08F3004B08F2004A08F1004908F000E6
:100308000A168A1542230A128A11730883160313E0
:10031800CC007208CB007108CA007008C90003300D
:10032800BF040030C00483160313C701C8014C087A
:10033800F3004B08F2004A08F1004908F0000030C9
:10034800F7000030F6000030F5000030F4000A161F
:100358008A154A250A128A110318B329B429A42A2E
:100368000310831603134B0D4C0D823EC700FF305C
:1003780003180030C800FF30C7070318C80AFF3049
:10038800C8070330F0000030F1004808F3004708C0
:10039800F2000A168A1558240A128A11710883165F
:1003A8000313C8007008C7000A30F7000030F800CF
:1003B8004808FA004708F9000A168A151D270A1284
:1003C8008A11780883160313C8007708C700C81F66
:1003D800EE29EF29F529FF30C7070318C80AFF30AF
:1003E800C8074703FF3A0A128A1540210A128A11E0
:1003F80083120313410883160313C60083120313E1
:10040800400883160313C500831203133F0883169D
:100418000313C400831203133E0883160313C30097
:100428004C0883120313A700831603134B08831287
:100438000313A600831603134A0883120313A500A7
:1004480083160313490883120313A40083160313A6
:10045800460883120313AB0083160313450883125F
:100468000313AA0083160313440883120313A90075
:1004780083160313430883120313A8000A128A156C
:100488009F240A128A118312031327088316031361
:10049800C60083120313260883160313C5008312AC
:1004A8000313250883160313C400831203132408B7
:1004B80083160313C3004608F3004508F2004408F6
:1004C800F1004308F0003F30F7008030F6000030BC
:1004D800F5000030F4000A168A1154210A128A1114
:1004E8000318772A782A812AFF3083160313C7074F
:1004F8000318C80AFF30C807A42A8316031346083E
:10050800F3004508F2004408F1004308F0004130C8
:10051800F7002030F6000030F5000030F4000A162D
:100528008A1154210A128A11031C9B2A9C2AA42A84
:10053800013083160313C7070318C80A0030C80719
:10054800831603134F08803AFF0080307F02031D93
:10055800AF2A0D304E020318B22AB32AFA2A83169C
:1005680003134E080A168A116D230A128A11831280
:1005780003134108D5004008D4003F08D3003E08C3
:10058800D200831603134C0883120313D900831671
:1005980003134B0883120313D800831603134A0866
:1005A80083120313D7008316031349088312031316
:1005B800D6000A168A1178250A128A1183120313A3
:1005C800550883160313CC008312031354088316AB
:1005D8000313CB0083120313530883160313CA00B3
:1005E80083120313520883160313C90083160313D7
:1005F8004808803AFF0080307F02031D052B0A302F
:1006080047020318082B092B5A2B831603134C088F
:10061800F3004B08F2004A08F1004908F0000030E6
:10062800F7000030F6000030F5000030F4000A163C
:100638008A154A250A128A110318232B242BCC2B3E
:10064800831603134C0883120313D4008316031371
:100658004B0883120313D300831603134A0883122B
:100668000313D20083160313490883120313D1001E
:100678000A128A1506200A128A11831203135408D3
:10068800530452045104031D4A2B4B2BCC2B8316C5
:1006980003134808803AFF0080307F02031D562B61
:1006A80002304702031C592B5A2BCC2B83160313F9
:1006B8004608F3004508F2004408F1004308F0003A
:1006C8004030F7008930F6007030F5005F30F400F4
:1006D8000A168A1154210A128A110318742B752BD1
:1006E8007E2BF73083160313C7070318C80AFF3099
:1006F800C807862BF83083160313C7070318C80AE0
:10070800FF30C80747080A128A1540210A128A11C1
:1007180083120313410883160313C60083120313BD
:10072800400883160313C500831203133F0883167A
:100738000313C400831203133E0883160313C30074
:100748004C08F3004B08F2004A08F1004908F00091
:100758004608F7004508F6004408F5004308F40089
:100768000A128A1582200A128A1173088316031343
:10077800BE007208BD007108BC007008BB000030E4
:10078800CC000030CB000030CA000030C900502C2B
:10079800831603134C0883120313D4008316031320
:1007A8004B0883120313D300831603134A088312DA
:1007B8000313D20083160313490883120313D100CD
:1007C8000A128A1506200A128A1183120313540882
:1007D80083160313BE0083120313530883160313EF
:1007E800BD0083120313520883160313BC0083123F
:1007F8000313510883160313BB003E08F3003D089A
:10080800F2003C08F1003B08F00000300A168A119B
:10081800F6210A128A11730883120313E900720879
:10082800E8007108E7007008E600831603134C0817
:1008380083120313ED00831603134B08831203136B
:10084800EC00831603134A0883120313EB00831684
:100858000313490883120313EA000A168A150F24A2
:100868000A128A1183120313690883160313CC0032
:1008780083120313680883160313CB008312031330
:10088800670883160313CA008312031366088316C6
:100898000313C900C701C801D001D00A5008B1002C
:1008A80001300310B10DFF3E031D552C0310310D0F
:1008B800693E84000A168A1100200A128A11B200C1
:1008C8000A168A1100200A128A11B3000A168A1120
:1008D80000200A128A11B4000A168A1100200A128E
:1008E8008A11B50035083E02031D842C34083D02E8
:1008F800031D842C33083C02031D842C32083B0260
:100908000318872C882C892C932C0130B1003108CE
:10091800D0070A305006031D922C932C522C5008F5
:100928004E07B1004F0803184F0AB20047083107B5
:10093800B30048080318480A3207B4003308C10254
:100948003408031CC203C2024E084F040319AD2C1D
:10095800AE2CB42CFF30C1070318C20AFF30C207FF
:1009680003303F05B10000304005B20031083204C1
:100978000319BF2CC02CD52CFF30C1070318C20A9D
:10098800FF30C207D52C203083160313B1004D0861
:1009980084003108831380000130B1003108CD078D
:1009A800C02C4208803AFF0080307F02031DDE2CF5
:1009B800013041020318E12CE22CC72C03308316C6
:1009C80003133F05B10000304005B200310832047E
:1009D8000319EF2CF02C622D2D30B1004D08840046
:1009E8003108831380000130B1003108CD07622D32
:1009F8005008B10001300310B10DFF3E031DFF2C5C
:100A08000310310D693E84000A168A1100200A126B
:100A18008A11F0000A168A1100200A128A11F100C0
:100A28000A168A1100200A128A11F2000A168A117F
:100A380000200A128A11F3003E08F7003D08F6006C
:100A48003C08F5003B08F4000A168A154E260A12DF
:100A58008A11730883160313C6007208C50071084B
:100A6800C4007008C3000030F3000030F20000300A
:100A7800F1000A30F0004608F7004508F60044087F
:100A8800F5004308F4000A128A1104200A128A1198
:100A9800730883160313C6007208C5007108C400E2
:100AA8007008C3004308303EB1004D088400310887
:100AB800831380000130B1003108CD070130D00226
:100AC800500A031D682D692DFC2C7D2D30308316AE
:100AD8000313B1004D0884003108831380000130EE
:100AE800B1003108CD07FF30C7070318C80AFF3027
:100AF800C8074808803AFF0080307F02031D862D12
:100B0800013047020318892D8A2D6A2D8316031395
:100B18004F08803AFF0080307F02031D952D093071
:100B28004E02031C982D992DA02D0830831603130F
:100B3800B1003108D000A62D831603134E08B1006A
:100B48003108D0005008B100B2013108CE02320895
:100B5800031CCF03CF0250080319B32DB42DBF2DAA
:100B68002E30B1004D088400310883138000013015
:100B7800B1003108CD0750080A128A1540210A121F
:100B88008A1183120313410883160313B9008312D1
:100B98000313400883160313B800831203133F0896
:100BA80083160313B700831203133E088316031337
:100BB800B600390883120313AB00831603133808F1
:100BC80083120313AA00831603133708831203132F
:100BD800A90083160313360883120313A80083168B
:100BE80003134C0883120313A700831603134B083F
:100BF80083120313A600831603134A0883120313F0
:100C0800A50083160313490883120313A4000A12CC
:100C18008A159F240A128A11831203132708D40005
:100C28002608D3002508D2002408D1000A128A1504
:100C380006200A128A118312031354088316031319
:100C4800BE0083120313530883160313BD008312D7
:100C58000313520883160313BC00831203135108AD
:100C680083160313BB00D92E5008B10001300310BE
:100C7800B10DFF3E031D3B2E0310310D693E84006C
:100C88000A168A1100200A128A11F0000A168A111F
:100C980000200A128A11F1000A168A1100200A128D
:100CA8008A11F2000A168A1100200A128A11F3002A
:100CB8003E08F7003D08F6003C08F5003B08F40044
:100CC8000A168A154E260A128A1173088316031308
:100CD800C6007208C5007108C4007008C30000305F
:100CE800F3000030F2000030F1000A30F00046084E
:100CF800F7004508F6004408F5004308F4000A1216
:100D08008A1104200A128A11730883160313C60075
:100D18007208C5007108C4007008C3004308303E5B
:100D2800B1004D0884003108831380000130B10000
:100D38003108CD075008B10001300310B10DFF3E56
:100D4800031DA12E0310310D693E84000A168A1175
:100D580000200A128A11F0000A168A1100200A12CD
:100D68008A11F1000A168A1100200A128A11F2006B
:100D78000A168A1100200A128A11F3003E08F700A9
:100D88003D08F6003C08F5003B08F4000A128A11F9
:100D980004200A128A11730883160313BE0072080E
:100DA800BD007108BC007008BB000130D002500AB9
:100DB800031DDF2EE02E382EF22E3030B1004D0804
:100DC80084003108831380000130B1003108CD0759
:100DD800FF30CE070318CF0AFF30CF074E084F0465
:100DE800031DF72EF82EE12EBC2F4E084F04031DCD
:100DF800FE2EFF2E0D2F3E083D043C043B04031D30
:100E0800062F072F0D2F0130CE070318CF0A003009
:100E1800CF074F08803A803C031D142F4E0850021C
:100E28000318172F182F1F2F831603134E08B1000E
:100E38003108D000372F831603134F08803AB100CA
:100E480080303102031D2A2F50084E0203182D2F1F
:100E58002E2F372F831603135008B100B201310823
:100E6800CE003208CF008316031341084204031949
:100E78003E2F3F2F512F03303F05B1000030400572
:100E8800B2003108320403194A2F4B2F512FFF307B
:100E9800C1070318C20AFF30C207401F542F552F3D
:100EA800702F4F08803AB1004208803A3102031D82
:100EB8005F2F41084E020318622F632F6C2F831691
:100EC80003134E08C1024F08031CC203C202702F4D
:100ED80083160313C101C2014208803A803C031DF6
:100EE800772F4108500203187A2F7B2F872F8316FC
:100EF80003135008B100B2013108C1023208031CC3
:100F0800C203C2028B2F83160313C101C201410819
:100F180042040319902F912FA82F2030B1004D08BB
:100F280084003108831380000130B1003108CD07F7
:100F3800FF30C1070318C20AFF30C2074108420444
:100F4800031DA72FA82F912F03303F05B1000030B4
:100F58004005B200310832040319B32FB42FBC2F57
:100F68002D30B1004D0884003108831380006D28AE
:100F78000130AC07FF302C0784000A168A110020C4
:100F88000A128A11B1003108D0005008031DCD2F74
:100F9800CE2F60284D088400831380010800831633
:100FA80003130A128A1502200A128A11E7000A128C
:100FB8008A1503200A128A11E8000A128A150420E9
:100FC8000A128A11E9000A128A1505200A128A11E2
:100FD800EA00D801D901DA01DB01DC01DD01DE011B
:100FE800DF01E001E101E201E301E401E501E601DD
:080FF80083010A168A15F12D90
:101004008034C0349434D434031083120313530D46
:10101400540DD5005508DB005B08031D1228132866
:101024001C280030D4000030D3000030D20000303F
:10103400D10081285108D5005208D6005308D700A2
:101044005408D8001F300310D80CD70CD60CD50C7C
:10105400FF3E031D25285508D9005908DA00D31787
:10106400FF30D105FF30D205FF30D3050030D40561
:101074009630DB02DB1F3F2840285A285B08803A61
:10108400973E0318462847284828132801300310A0
:10109400D40CD30CD20CD10CFF3E031D49280130D3
:1010A400D5005508DB07031D5828592848287128FE
:1010B40020305B02031C5F2860286C281328013051
:1010C400D5000310D10DD20DD30DD40DD50B63284B
:1010D4000130DB025B08031D7028712861285A085F
:1010E4000319752876288128D109D209D309D4098E
:1010F400D10A0319D20A0319D30A0319D40A08001E
:101104000310720D730DF800780883120313A50001
:101114002508031D8E288F2898280030F3000030FE
:10112400F2000030F1000030F0003F290310760D8A
:10113400770DF8007808A4002408031DA228A3282A
:10114400A4288F28F217FF30F005FF30F105FF3097
:10115400F2050030F305F617FF30F405FF30F5050E
:10116400FF30F6050030F7050030A3000030A20080
:101174000030A1000030A0007F30A502A030240779
:10118400F8007808A5022030F8007808A40001309F
:10119400F8000310A00DA10DA20DA30DF80BCB2890
:1011A40077087302031DE02876087202031DE02805
:1011B40075087102031DE02874087002031CE328FB
:1011C400E428F3287408F0027508031C750FF10273
:1011D4007608031C760FF2027708031C770FF302DC
:1011E40020140130F8000310F00DF10DF20DF30D91
:1011F400F80BF5280130A402031D01290229C9288E
:10120400A51F0529062920292508803A9F3E031891
:101214000C290D290E298F2801300310A30CA20CD0
:10122400A10CA00CFF3E031D0F290130F800780823
:10123400A507031D1E291F290E2937292030250241
:10124400031C2529262932298F280130F800031090
:10125400A00DA10DA20DA30DF80B29290130A502A3
:101264002508031D3629372927292308F3002208D6
:10127400F2002108F1002008F00008008312031393
:10128400D000D01F46294729F42AD009D00A500893
:10129400803A123E031C4F295029382A0A30F7009D
:1012A4000030F8005008F200F301F21BF30364303D
:1012B400F0000030F1000A168A1598250A128A15E2
:1012C4007108FA007008F9000A168A151D270A1217
:1012D4008A15770883120313C20001300310C20D6C
:1012E400FF3E031D70290310420D593E84000A1667
:1012F4008A1100200A128A15C3000A168A110020D6
:101304000A128A15C4000A168A1100200A128A15C4
:10131400C5000A168A1100200A128A15C60046085A
:10132400A7004508A6004408A5004308A4006430AB
:10133400F7000030F8005008F900FA01F91BFA032D
:101344000A168A151D270A128A15770883120313B1
:10135400C70001300310C70DFF3E031DAC29031065
:10136400470D7D3E84000A168A1100200A128A1550
:10137400C8000A168A1100200A128A15C9000A1622
:101384008A1100200A128A15CA000A168A1100203E
:101394000A128A15CB004B08AB004A08AA00490878
:1013A400A9004808A8000A128A159F240A128A155F
:1013B400831203132708CF002608CE002508CD008A
:1013C4002408CC000A30F0000030F1005008F2008C
:1013D400F301F21BF3030A168A1598250A128A15DB
:1013E400700883120313C20001300310C20DFF3EC4
:1013F400031DF7290310420D353E84000A168A1195
:1014040000200A128A15C3000A168A1100200A1243
:101414008A15C4000A168A1100200A128A15C5000A
:101424000A168A1100200A128A15C6004608A70067
:101434004508A6004408A5004308A4004F08AB00D3
:101444004E08AA004D08A9004C08A8000A128A15E3
:101454009F240A128A15831203132708C100260841
:10146400C0002508BF002408BE009E2C5008803A06
:10147400753E031C3E2A3F2AC72A0A30F00000307A
:10148400F1005008F200F301F21BF3030A168A1567
:1014940098250A128A15700883120313C2000130BA
:1014A4000310C20DFF3E031D522A0310420D353EA8
:1014B40084000A168A1100200A128A15C3000A162B
:1014C4008A1100200A128A15C4000A168A11002003
:1014D4000A128A15C5000A168A1100200A128A15F2
:1014E400C6004608A7004508A6004408A50043080E
:1014F400A4000A30F7000030F8005008F900FA019F
:10150400F91BFA030A168A151D270A128A15770889
:1015140083120313C70001300310C70DFF3E031DE0
:101524008E2A0310470D593E84000A168A110020A2
:101534000A128A15C8000A168A1100200A128A158E
:10154400C9000A168A1100200A128A15CA000A164E
:101554008A1100200A128A15CB004B08AB004A08F6
:10156400AA004908A9004808A8000A128A159F245D
:101574000A128A15831203132708C1002608C00023
:101584002508BF002408BE009E2C5008C20001306C
:101594000310C20DFF3E031DCA2A0310420D353E3F
:1015A40084000A168A1100200A128A15C3000A163A
:1015B4008A1100200A128A15C4000A168A11002012
:1015C4000A128A15C5000A168A1100200A128A1501
:1015D400C6004608C1004508C0004408BF004308CF
:1015E400BE009E2C5008803A123E031CFA2AFB2AA5
:1015F400E32B0A30F7000030F8005008F200F30142
:10160400F21BF3036430F0000030F1000A168A156F
:1016140098250A128A157108FA007008F9000A164A
:101624008A151D270A128A15770883120313C2002C
:1016340001300310C20DFF3E031D1B2B0310420D8E
:10164400253E84000A168A1100200A128A15C30056
:101654000A168A1100200A128A15C4000A168A1171
:1016640000200A128A15C5000A168A1100200A12DF
:101674008A15C6004608A7004508A6004408A50028
:101684004308A4006430F7000030F8005008F90063
:10169400FA01F91BFA030A168A151D270A128A157C
:1016A400770883120313C70001300310C70DFF3EF0
:1016B400031D572B0310470D493E84000A168A1157
:1016C40000200A128A15C8000A168A1100200A127C
:1016D4008A15C9000A168A1100200A128A15CA003E
:1016E4000A168A1100200A128A15CB004B08AB0097
:1016F4004A08AA004908A9004808A8000A128A153D
:101704009F240A128A15831203132708CF00260880
:10171400CE002508CD002408CC000A30F0000030AB
:10172400F1005008F200F301F21BF3030A168A15C4
:1017340098250A128A15700883120313C200013017
:101744000310C20DFF3E031DA22B0310420D013EE8
:1017540084000A168A1100200A128A15C3000A1688
:101764008A1100200A128A15C4000A168A11002060
:101774000A128A15C5000A168A1100200A128A154F
:10178400C6004608A7004508A6004408A50043086B
:10179400A4004F08AB004E08AA004D08A9004C084D
:1017A400A8000A128A159F240A128A1583120313A9
:1017B4002708C1002608C0002508BF002408BE0071
:1017C4009E2C5008803A753E031CE92BEA2B722CA0
:1017D4000A30F0000030F1005008F200F301F21B6F
:1017E400F3030A168A1598250A128A1570088312BB
:1017F4000313C20001300310C20DFF3E031DFD2B75
:101804000310420D013E84000A168A1100200A12B8
:101814008A15C3000A168A1100200A128A15C40008
:101824000A168A1100200A128A15C5000A168A119E
:1018340000200A128A15C6004608A7004508A6001B
:101844004408A5004308A4000A30F7000030F8005B
:101854005008F900FA01F91BFA030A168A151D2724
:101864000A128A15770883120313C7000130031084
:10187400C70DFF3E031D392C0310470D253E840080
:101884000A168A1100200A128A15C8000A168A113B
:1018940000200A128A15C9000A168A1100200A12A9
:1018A4008A15CA000A168A1100200A128A15CB006A
:1018B4004B08AB004A08AA004908A9004808A80038
:1018C4000A128A159F240A128A1583120313270801
:1018D400C1002608C0002508BF002408BE009E2CB5
:1018E4005008C20001300310C20DFF3E031D752CC9
:1018F4000310420D013E84000A168A1100200A12C8
:101904008A15C3000A168A1100200A128A15C40017
:101914000A168A1100200A128A15C5000A168A11AD
:1019240000200A128A15C6004608C1004508C000F6
:101934004408BF004308BE000800831203132708AD
:101944008039AC002C08B1002708AC002C07AD008E
:101954002D08B700A61FAF2CB02CB12C37143708B4
:101964000319B52CB62CC52C370A031DBA2CBB2C75
:10197400C32C0030A7000030A6000030A5000030C2
:10198400A400A617CD2C0030A7000030A60000301C
:10199400A5000030A4002B088039AC002C08B10647
:1019A4002B08AC002C07AD002D08B600AA1FDB2CB9
:1019B400DC2CDD2C361436080319E12CE22CF12C36
:1019C400360A031DE62CE72CEF2C0030AB00003068
:1019D400AA000030A9000030A800AA17F92C003092
:1019E400AB000030AA000030A9000030A80036087F
:1019F4000319FD2CFE2C032D3708031D022D032D86
:101A04000C2D0030A7000030A6000030A5000030E7
:101A1400A400FF2F2408AC002C08F0002A080A16A2
:101A24008A11A3200A128A15710883120313BD00B8
:101A34007008BC003C08AC00AD01AE01AF012F083A
:101A4400B5002E08B4002D08B3002C08B2003D08E0
:101A5400AC00AD01AE01AF012F08BB002E08BA00E7
:101A64002D08B9002C08B8002508AC002C08F0009B
:101A740029080A168A11A3200A128A1571088312EA
:101A84000313BD007008BC003C08AC00AD01AE01FE
:101A9400AF012C08B2072D0803110318013E0319E6
:101AA400542DB3072E0803110318013E03195B2DAF
:101AB400B4072F0803110318013E0319622DB5075B
:101AC4003D08AC00AD01AE01AF012C08B8072D08EC
:101AD40003110318013E0319702DB9072E080311D1
:101AE4000318013E0319772DBA072F0803110318B1
:101AF400013E03197E2DBB072608AC002C08F0001C
:101B040028080A168A11A3200A128A15710883125A
:101B14000313BD007008BC003C08AC00AD01AE016D
:101B2400AF012C08B2072D0803110318013E031955
:101B34009C2DB3072E0803110318013E0319A32D8E
:101B4400B4072F0803110318013E0319AA2DB50782
:101B54003D08AC00AD01AE01AF012C08B8072D085B
:101B640003110318013E0319B82DB9072E080311F8
:101B74000318013E0319BF2DBA072F0803110318D8
:101B8400013E0319C62DBB070830AC000310B20D8B
:101B9400B30DB40DB50DAC0BC82D2508AC002C0845
:101BA400F00028080A168A11A3200A128A1571085F
:101BB40083120313BD007008BC003C08AC003D0850
:101BC400AD00AE01AF012C08B2072D0803110318B4
:101BD400013E0319EE2DB3072E0803110318013E2D
:101BE4000319F52DB4072F0803110318013E031937
:101BF400FC2DB5072408AC002C08F00029080A16AF
:101C04008A11A3200A128A15710883120313BD00D6
:101C14007008BC003C08AC003D08AD00AE01AF014B
:101C24002C08B2072D0803110318013E03191B2EBB
:101C3400B3072E0803110318013E0319222EB4071B
:101C44002F0803110318013E0319292EB507083084
:101C5400AC000310B20DB30DB40DB50DAC0B2B2EAF
:101C64002408AC002C08F00028080A168A11A320C6
:101C74000A128A15710883120313BD007008BC0090
:101C84003C08AC003D08AD00AE01AF012C08B20722
:101C94002D0803110318013E0319512EB3072E0812
:101CA40003110318013E0319582EB4072F0803111A
:101CB4000318013E03195F2EB5072508AC002C0854
:101CC400F0002A080A168A11A3200A128A1571083C
:101CD40083120313BD007008BC003C08AC003D082F
:101CE400AD00AE01AF012C08B8072D08031103188D
:101CF400013E03197E2EB9072E0803110318013E75
:101D04000319852EBA072F0803110318013E03197E
:101D14008C2EBB072608AC002C08F00029080A16F4
:101D24008A11A3200A128A15710883120313BD00B5
:101D34007008BC003C08AC003D08AD00AE01AF012A
:101D44002C08B8072D0803110318013E0319AB2E04
:101D5400B9072E0803110318013E0319B22EBA075E
:101D64002F0803110318013E0319B92EBB072608D7
:101D7400AC002C08F0002A080A168A11A3200A12C3
:101D84008A15710883120313BD007008BC003C0857
:101D9400AC003D08AD00AE01AF0108300310AC0D3E
:101DA400AD0DAE0DAF0DFF3E031DD02E2C08B807B0
:101DB4002D0803110318013E0319E12EB9072E085B
:101DC40003110318013E0319E82EBA072F08031163
:101DD4000318013E0319EF2EBB073208AC00330889
:101DE400AD003408AE003508AF0018300310AF0C56
:101DF400AE0CAD0CAC0CFF3E031DF82E2C08B8073E
:101E04002D0803110318013E0319092FB9072E08E1
:101E140003110318013E0319102FBA072F080311E9
:101E24000318013E0319172FBB070830AC00031039
:101E3400B20DB30DB40DB50DAC0B192F3708360721
:101E4400AC00AD01AD0D2C08823EBC002D0803187A
:101E5400013EFF3EBD004B2F0130AC000310B80D16
:101E6400B90DBA0DBB0DAC0B302FB51F3A2F3B2F5C
:101E74003C2F38140130AC000310B20DB30DB40D77
:101E8400B50DAC0B3E2FFF30BC070318BD0AFF3065
:101E9400BD07BA1F4E2F4F2F2E2FB601B51F532F3C
:101EA400542F702FFF303205AC00FF303305AD00E6
:101EB400FF303405AE007F303505AF002F082E0407
:101EC4002D042C040319672F682F6B2FB601B60A53
:101ED400702F381C6E2F6F2F702F682F3608031940
:101EE400742F752FA62F0130B80700300318013066
:101EF400B907003003180130BA0700300318013065
:101F0400BB073B1C862F872FA62F3808AC00390847
:101F1400AD003A08AE003B08AF000130B0002F0D11
:101F2400AF0CAE0CAD0CAC0CB00B912F2F08BB005A
:101F34002E08BA002D08B9002C08B8000130BC07DF
:101F44000318BD0A0030BD073D08803AFF00803009
:101F54007F02031DAF2FFF303C02031CB22FB32FAF
:101F6400BE2F7F3083120313BB008030BA000030D1
:101F7400B9000030B800F32F831203133D08803AF0
:101F8400FF0080307F02031DC92F01303C0203187B
:101F9400CC2FCD2FD92F003083120313BB00003078
:101FA400BA000030B9000030B800B101F32F831239
:101FB40003133C08AC002C08B700FF30B805FF3011
:101FC400B9057F30BA050030BB05371CEA2FEB2F6B
:101FD400EC2FBA173708AC0003102C0CAD002D08F9
:101FE400BB003108AC002C08BB043B08A7003A082E
:101FF400A6003908A5003808A400080010308A009B
:102004000408840A820700340034003480343F34E6
:10201400003400342034413400340034C8344234B1
:10202400003400347A344434003440341C344634AC
:1020340000345034C33447340034243474344934C1
:102044008034963418344B342034BC34BE344C348D
:1020540028346B346E344E34F9340234153450342D
:10206400EC347834AD346034CA34F23449347134E5
:102074000034003480343F34CD34CC34CC343D345B
:102084000A34D73423343C346F34123483343A342E
:102094001734B734D1343834AC34C53427343734F6
:1020A400BD343734863435349534BF34D634333480
:1020B4007734CC342B3432345F3470348934303454
:1020C400FF34E634DB342E340834E5343C341E3437
:1020D40060344234A2340D3401340034003400340A
:1020E4000A340034003400346434003400340034DE
:1020F400E83403340034003410342734003400341A
:10210400A034863401340034403442340F34003473
:1021140080349634983400340034E134F534053492
:102124000034CA349A343B34543465346D347034D6
:1021340072343A34253433342E34323466344334EE
:102144000034F800F401F5017008F200F30172089C
:10215400F6007308F700781CB028B128B728760871
:10216400F4070318F50A7708F50701300310F60D94
:10217400F70DFF3E031DB8280310F80C7808031D63
:10218400C428C528AD287508F1007408F0000800BB
:10219400831203136708EB006608EA000830FF00A7
:1021A4006B0DEB0CEA0CFF0BD2286A08F0006B08ED
:1021B400F1000030F11BFF30F200F30001300A1689
:1021C4008A11F6210A168A11730883160313A400D0
:1021D4007208A3007108A2007008A10083120313FF
:1021E40066088039EA006A0883160313A0002008F1
:1021F4000319FD28FE283D293F3083120313D5001F
:102204000030D4000030D3000030D2008316031312
:10221400240883120313D90083160313230883129B
:102224000313D80083160313220883120313D70061
:1022340083160313210883120313D6000A168A1186
:1022440078250A168A11831203135508831603137B
:10225400A40083120313540883160313A3008312E8
:102264000313530883160313A200831203135208A3
:1022740083160313A100240883120313E9008316B1
:102284000313230883120313E8008316031322089D
:1022940083120313E7008316031321088312031325
:1022A400E600080000307005F80000307105F90000
:1022B40080307205FA007F307305FB007B087A04D6
:1022C40079047804031D6729682970290030F30014
:1022D4000030F2000030F1000030F00000307405EE
:1022E400F80000307505F90080307605FA007F307B
:1022F4007705FB007B087A0479047804031D83299D
:1023040084298C290030F7000030F6000030F500F5
:102314000030F400F31F8F299029B4290030F8000D
:102324000030F9000030FA008030FB007008F80239
:102334007108031C710F9F29A029F9027208031C5C
:10234400720FA529A629FA027308031C730FAB297F
:10235400AC29FB027B08F3007A08F2007908F1004B
:102364007808F000F71FB729B829DC290030F800F5
:102374000030F9000030FA008030FB007408F802E5
:102384007508031C750FC729C829F9027608031CB0
:10239400760FCD29CE29FA027708031C770FD329AB
:1023A400D429FB027B08F7007A08F6007908F500C7
:1023B4007808F4008030F3068030F706770873025B
:1023C400031DEE2976087202031DEE2975087102B9
:1023D400031DEE29740870020318F129F229F42967
:1023E4000310F52903140800F80078080319FB29E1
:1023F400FC29102AF31FFF29002A102A7009FA0069
:102404007109FB007209FC007309FD00FA0A031943
:10241400FB0A0319FC0A0319FD0A182A7308FD00B4
:102424007208FC007108FB007008FA00730872045B
:1024340071047004031D1F2A202A292A0030F30086
:102444000030F2000030F1000030F000AF2A963086
:10245400F4007408F9003B2A0130F4007408F90709
:1024640001300310FD0CFC0CFB0CFA0CFF3E031DA9
:10247400332AFE307D05031D402A412A2E2A5D2A77
:102484000130F4007408F9070130FA07003003182A
:102494000130FB07003003180130FC07003003183B
:1024A4000130FD0701300310FD0CFC0CFB0CFA0C91
:1024B400FF3E031D552AFF307D05031D622A632A52
:1024C400422A6F2A0130F9020130F4000310FA0D98
:1024D400FB0DFC0DFD0DF40B682AFC1B722A732AFC
:1024E400792A023079020318782A792A642A791819
:1024F4007C2A7D2A852AFF30FA05FF30FB057F30D0
:10250400FC05FF30FD050310F90C7908F400F50112
:10251400F601F70118300310F40DF50DF60DF70D63
:10252400FF3E031D8D2A7408FA047508FB0476081F
:10253400FC047708FD0478080319A12AA22AA72A13
:10254400F31FA52AA62AA72AFD177D08F3007C08F5
:10255400F2007B08F1007A08F00008007008F80027
:102564007108F9007208FA000310790D7A0DFB0066
:102574007B0883120313A5002508031DC22AC32A5E
:10258400CC2A0030F3000030F2000030F1000030BB
:10259400F0006C2B7408F8007508F9007608FA004E
:1025A4000310790D7A0DFB007B08A4002408031D99
:1025B400DC2ADD2ADE2AC32AF117FF30F005FF30BA
:1025C400F1050030F205F517FF30F405FF30F5058D
:1025D4000030F6050030A3000030A2000030A10056
:1025E4000030A0007F30A50298302407F800780856
:1025F400A5021830F8007808A4000130F800031090
:10260400A00DA10DA20DA30DF80B012B76087202EB
:10261400031D122B75087102031D122B740870021E
:10262400031C152B162B212B7408F0027508031CB0
:10263400750FF1027608031C760AF20220140130A9
:102644000310F00DF10DF20DFF3E031D222B01309E
:10265400A402031D2E2B2F2BFF2AA51F322B332B55
:102664004D2B2508803A973E0318392B3A2B3B2BE8
:10267400C32A01300310A30CA20CA10CA00CFF3E32
:10268400031D3C2B0130F8007808A507031D4B2BD4
:102694004C2B3B2B642B18302502031C522B532B41
:1026A4005F2BC32A0130F8000310A00DA10DA20D69
:1026B400A30DF80B562B0130A5022508031D632B2F
:1026C400642B542B2308F3002208F2002108F100A4
:1026D4002008F000080083120313D1006E30510269
:1026E400031C752B762B832C3F30A7000030A600EB
:1026F4000030A5000030A4006430F6000030F7007C
:102704005108C200C3014208F8004308F9000A1640
:102714008A1506250A168A11760883120313C40043
:1027240001300310C40DFF3E031D932B0310440D11
:102734007D3E84000A168A1100200A168A11C500FB
:102744000A168A1100200A168A11C6000A168A116E
:1027540000200A168A11C7000A168A1100200A16D8
:102764008A11C8004808AB004708AA004608A90017
:102774004508A8000A128A159F240A168A11831292
:1027840003132708D0002608CF002508CE0024080C
:10279400CD000A30F6000030F7005108C200C30132
:1027A4004208F2004308F3006430F0000030F10006
:1027B4000A168A15CC240A168A117108F9007008C1
:1027C400F8000A168A1506250A168A117608831255
:1027D4000313C40001300310C40DFF3E031DED2B91
:1027E4000310440D593E84000A168A1100200A166B
:1027F4008A11C5000A168A1100200A168A11C60019
:102804000A168A1100200A168A11C7000A168A11AC
:1028140000200A168A11C8004808A7004708A60025
:102824004608A5004508A4005008AB004F08AA00BC
:102834004E08A9004D08A8000A128A159F240A16FA
:102844008A11831203132708CC002608CB0025081D
:10285400CA002408C9000A30F0000030F100510811
:10286400C200C3014208F2004308F3000A168A15A5
:10287400CC240A168A11700883120313C400013091
:102884000310C40DFF3E031D422C0310440D353EBE
:1028940084000A168A1100200A168A11C5000A1635
:1028A4008A1100200A168A11C6000A168A1100200D
:1028B4000A168A11C7000A168A1100200A168A11FC
:1028C400C8004808A7004708A6004608A500450810
:1028D400A4004C08AB004B08AA004A08A900490808
:1028E400A8000A128A159F240A168A118312031358
:1028F4002708C1002608C0002508BF002408BE0020
:10290400772D0B305102031C882C892C342D3F3039
:10291400A7000030A6000030A5000030A4000A3053
:10292400F6000030F7005108C200C3014208F80065
:102934004308F9000A168A1506250A168A1176082C
:1029440083120313C40001300310C40DFF3E031DA2
:10295400A62C0310440D593E84000A168A11002047
:102964000A168A11C5000A168A1100200A168A114D
:10297400C6000A168A1100200A168A11C7000A1610
:102984008A1100200A168A11C8004808AB004708BB
:10299400AA004608A9004508A8000A128A159F241F
:1029A4000A168A11831203132708D0002608CF00C1
:1029B4002508CE002408CD000A30F0000030F100D4
:1029C4005108C200C3014208F2004308F3000A168A
:1029D4008A15CC240A168A11700883120313C400C2
:1029E40001300310C40DFF3E031DF32C0310440DEE
:1029F400353E84000A168A1100200A168A11C50081
:102A04000A168A1100200A168A11C6000A168A11AB
:102A140000200A168A11C7000A168A1100200A1615
:102A24008A11C8004808A7004708A6004608A50060
:102A34004508A4005008AB004F08AA004E08A9009E
:102A44004D08A8000A128A159F240A168A118312B7
:102A540003132708C1002608C0002508BF00240866
:102A6400BE00772D3F30A7000030A6000030A5003F
:102A74000030A4005108C20001300310C20DFF3E13
:102A8400031D3F2D0310420D353E84000A168A11A2
:102A940000200A168A11C3000A168A1100200A1699
:102AA4008A11C4000A168A1100200A168A11C50068
:102AB4000A168A1100200A168A11C6004608AB00BD
:102AC4004508AA004408A9004308A8000A128A1568
:102AD4009F240A168A11831203132708C1002608AB
:102AE400C0002508BF002408BE0008008312031399
:102AF40055088039DA005A08E2005508DA005A0706
:102B0400DB005B08E400D41F882D892D8A2D641412
:102B1400640803198E2D8F2D9F2D640A031D932D98
:102B2400942D9C2D0030D5000030D4000030D3000B
:102B34000030D200D417D501A72D0030D5000030C5
:102B4400D4000030D3000030D20059088039DA00B4
:102B54005A08E300630862060319B12DB22DB32DA0
:102B640062175908DA005A07DB005B08E300D81F34
:102B7400BC2DBD2DBE2D631463080319C22DC32DB6
:102B8400D32D630A031DC72DC82DD02D0030D900C5
:102B94000030D8000030D7000030D600D817D90153
:102BA400DB2D0030D9000030D8000030D7000030D1
:102BB400D600640863020318E02DE12D252E621F60
:102BC400E42DE52DE92D8030DA005A08E206640888
:102BD400DA005A08E5006308DA005A08E4006508D8
:102BE400DA005A08E3005208DA005A08E5005608E9
:102BF400DA005A08D2006508DA005A08D6005308E9
:102C0400DA005A08E5005708DA005A08D3006508C4
:102C1400DA005A08D7005408DA005A08E5005808C0
:102C2400DA005A08D4006508DA005A08D8005508B2
:102C3400DA005A08E5005908DA005A08D500650890
:102C4400DA005A08D900E5016308DA00DB015B0801
:102C5400DD0064085A02DC00031CDD035D08803AD1
:102C6400FF0080307F02031D392E1A305C02031CE2
:102C74003C2E3D2E7A2E831203135508540453041C
:102C84005204031D462E482E0130492E0030DA002E
:102C94005A08E5000030D5000030D4000030D300DD
:102CA4000030D2006308DA005A08E400822E651C62
:102CB4005C2E5D2E662E6508DA0003105A0C01386E
:102CC400DB005B08E500682E0310E50C521C6B2E3C
:102CD4006C2E6D2EE5170130DA00550DD50CD40C91
:102CE400D30CD20CDA0B6F2E0130DA005A08E40749
:102CF4008312031363086402031C812E822E592E4F
:102D0400621B852E862ED12E6408031D8A2E8B2EDF
:102D1400942E0030D5000030D4000030D3000030B1
:102D2400D200FF2F5608D207570803110318013E9B
:102D340003199D2ED307580803110318013E0319E4
:102D4400A42ED407590803110318013E0319AB2E0E
:102D5400D507551CAE2EAF2E852F651CB22EB32E73
:102D6400BC2E6508DA0003105A0C0138DB005B083E
:102D7400E500BE2E0310E50C521CC12EC22EC32E3C
:102D8400E5170130DA00550DD50CD40CD30CD20C58
:102D9400DA0BC52E0130DA005A08E407852F5508EE
:102DA400803AFF005908803A7F02031DE32E580839
:102DB4005402031DE32E57085302031DE32E560845
:102DC40052020318E62EE72E3F2FFF30DA00FF30C1
:102DD400DB00FF30DC00FF30DD005608DE00570862
:102DE400DF005808E0005908E1005208DE025308E9
:102DF400031C530FFE2EFF2EDF025408031C540F36
:102E0400042F052FE0025508031C550F0A2F0B2F22
:102E1400E1025E08DA075F0803185F0F122F132F11
:102E2400DB0760080318600F182F192FDC076108EF
:102E34000318610ADD075D08D5005C08D4005B084F
:102E4400D3005A08D2008030DA005A08E206E509B5
:102E5400E50A6508031D2F2F302F4D2F0130D207AF
:102E6400003003180130D307003003180130D407B1
:102E7400003003180130D5074D2F5608D2025708E9
:102E8400031C570FD3025808031C580FD4025908C7
:102E9400031C590FD5025508540453045204031D4E
:102EA400542F552F812F6508031D592F5A2F812F19
:102EB4000030D5000030D4000030D3000030D20000
:102EC400FF2F0130DA000310D20DD30DD40DD50D30
:102ED400DA0B652FE51F6F2F702F712F5214651CAD
:102EE400742F752F782F0314E50D7A2F0310E50D39
:102EF400640803197E2F7F2F812F0130E402D41F31
:102F0400842F852F632FE301E51F892F8A2F982FA4
:102F140065087F3903198F2F902F932FE301E30A5C
:102F2400982F521C962F972F982F902F63080319D0
:102F34009C2F9D2FD12F0130D20700300318013070
:102F4400D307003003180130D407003003180130D0
:102F5400D507551CAE2FAF2FD12F5208DA005308D6
:102F6400DB005408DC005508DD000130DE005D0D97
:102F7400DD0CDC0CDB0CDA0CDE0BB92F5D08D500A4
:102F84005C08D4005B08D3005A08D200640A031911
:102F9400CC2FCD2FD12F0130DA005A08E407640A70
:102FA4000319D52FD62FDB2F6408031DDA2FDB2F4F
:102FB400E92F0030D5000030D4000030D3000030B9
:102FC400D2006408031DE72FE82FE92FE201641CF7
:102FD400EC2FED2FEF2FD417F32F7F30DA005A08A0
:102FE400D4056408DA0003105A0CDB005B08D50032
:0C2FF400E21FFD2FFE2FFF2FD517080055
:1035F40083160313081088100812881208138813FE
:10360400080083160313111483128C1D0A2B0B2B31
:10361400062B8C11080083160313111583128C1DBD
:10362400142B152B102B8C110800831603139114E3
:1036340083128C1D1E2B1F2B1A2B8C110800F700D4
:1036440083120313081077080A168A1581230A16B1
:103654008A150800F70083120313081477080A1662
:103664008A1581230A168A150800F000700883124F
:10367400031393008C1D3F2B402B3C2B8C11080013
:1036840073087204710470040319492B4A2B4C2BE0
:103694008030F30608008312031388140730F10006
:1036A4007D30F000F00B542BF10B542B83120313D9
:1036B40088100800F100F0013A3071020318632BFE
:1036C400642B6C2B30307102031C692B6A2B6C2B1E
:1036D400F001F00A700C0800F0007018722B762BC1
:1036E400831603139116792B831603139112111663
:1036F40083128C1D7E2B7F2B7A2B8C110800831256
:103704000313A8002030F6007608F00028080A16F3
:103714008A1533240A168A1520300A168A15862734
:103724000A168A150800F1008316031391158312F3
:103734008C1D9D2B9E2B992B8C1171080A168A15B2
:103744006E230A168A1583120313130808000A1637
:103754008A15FA220A168A1502300A168A152123B6
:103764000A168A1528300A168A1521230A168A157C
:103774000C300A168A1521230A168A1506300A16F1
:103784008A1521230A168A150800F3000A168A15D9
:1037940003230A168A1590300A168A1537230A1647
:1037A4008A1573080A168A1537230A168A157208A9
:1037B4000A168A1537230A168A1571080A168A15F5
:1037C40037230A168A150A168A150D230A168A152E
:1037D4000800003083120313A3000130A2008630D6
:1037E400A100A030A0000A168A157D240A168A15A5
:1037F4008030F1002330F20003300A168A15C72303
:103804000A168A158030F1001E30F20002300A16C2
:103814008A15C7230A168A150800803083120313F9
:10382400E9066D08D5006C08D4006B08D3006A085B
:10383400D2006908D9006808D8006708D70066086C
:10384400D6000A168A1178250A168A1583120313DC
:103854005508E9005408E8005308E7005208E60058
:103864000800F400F5017408F100750A3B2C0310FC
:10387400F10CFF3E031D392C7118412C432C0130EF
:10388400442C0030F20075087007F30073088400BC
:103894007208831380000130F1007108F5070830C5
:1038A4007502031C562C572C352C0800F401F50125
:1038B400701C5D2C5E2C642C7208F4070318F50A46
:1038C4007308F50701300310F20DF30DFF3E031DDD
:1038D400652C01300310F10CF00CFF3E031D6C2C21
:1038E40070087104031D772C782C5A2C7508F1008C
:1038F4007408F00008008316031387150716831253
:1039040003132308F3002208F2002108F100200821
:10391400F0000030F7000030F6000330F500E83026
:10392400F4000A168A154E260A168A157008FF3EF8
:1039340083160313930080309400283083120313FA
:1039440094000800F9007908E73E84008312031309
:103954002908831300070A168A1521230A168A15D3
:10396400C12C2A08840000080A168A152C230A167A
:103974008A150130F800780883120313AA0783120A
:1039840003132A08840083130008031DCA2CCB2CBC
:10399400B32C0800700871040319D12CD22C012D0A
:1039A400F501F50AE02C01300310F00DF10DFF3E96
:1039B400031DD62C0130F4007408F507F11FE32C25
:1039C400E42CD52C71087302031DEA2C70087202D2
:1039D400031CED2CEE2CF42C7008F2027108031C6D
:1039E400F303F30201300310F10CF00CFF3E031D4E
:1039F400F52C0130F502031D002D012DE42C730874
:103A0400F1007208F0000800FB01FC01760877045D
:103A140003190D2D0E2D452DFD01FD0A1C2D013020
:103A24000310F60DF70DFF3E031D122D0130FA00B1
:103A34007A08FD07F71F1F2D202D112D01300310CB
:103A4400FB0DFC0DFF3E031D212D77087902031D9C
:103A54002D2D76087802031C302D312D382D760853
:103A6400F8027708031CF903F9027B1401300310F0
:103A7400F70CF60CFF3E031D392D0130FD02031D2A
:103A8400442D452D202D7C08F7007B08F600080006
:103A940000307005F80000307105F90080307205BF
:103AA400FA007F307305FB007B087A0479047804FC
:103AB400031D5D2D5E2D662D0030F3000030F200F5
:103AC4000030F1000030F00000307405F8000030E0
:103AD4007505F90080307605FA007F307705FB0024
:103AE4007B087A0479047804031D792D7A2D822DBC
:103AF4000030F7000030F6000030F5000030F4002C
:103B040077087306031D902D76087206031D902D09
:103B140075087106031D902D740870060319932D02
:103B2400942D962D0310972D03140800F601F31F0E
:103B34009C2D9D2DA42DF209F309F20A0319F30A11
:103B4400F601F60AF11FA72DA82DAD2DF009F109F4
:103B5400F00A0319F10A700871040319B22DB32D88
:103B6400E22DF501F50AC12D01300310F00DF10D20
:103B7400FF3E031DB72D0130F4007408F507F11F53
:103B8400C42DC52DB62D71087302031DCB2D7008ED
:103B94007202031CCE2DCF2DD52D7008F2027108B0
:103BA400031CF303F30201300310F10CF00CFF3E8D
:103BB400031DD62D0130F502031DE12DE22DC52D87
:103BC40076080319E62DE72DEC2DF209F309F20A24
:103BD4000319F30A7308F1007208F00008000A16CA
:103BE4008A15EB230A168A150A168A15A9230A16BA
:103BF4008A15913083160313D5005508AC000030A4
:103C04000A168A15B4260A168A15831203136F0836
:103C140083160313B000831203136E088316031371
:103C2400AF00831203136D0883160313AE008312CF
:103C340003136C0883160313AD00D8300A128A11DB
:103C440058200A168A1583120313A901D830831643
:103C54000313D500550883120313AA0000300A1673
:103C64008A15A4240A168A15063083160313D7006E
:103C74001330D600AD30D500D50B3E2ED60B3E2EDC
:103C8400D70B3E2E01300A168A1521230A168A15EF
:103C9400FB2D0A128A1100280030FC000030FB00C2
:103CA4000030FA000030F9007308720471047004E3
:103CB40003195D2E5E2EAB2EFD01FD0A6E2E013022
:103CC400F8000310F00DF10DF20DF30DF80B632E57
:103CD4000130F8007808FD07F31F712E722E612E53
:103CE4000130F8000310F90DFA0DFB0DFC0DF80B73
:103CF400742E73087702031D892E72087602031D41
:103D0400892E71087502031D892E70087402031C24
:103D14008C2E8D2E9C2E7008F4027108031C710FDA
:103D2400F5027208031C720FF6027308031C730F6A
:103D3400F702791401300310F30CF20CF10CF00CBF
:103D4400FF3E031D9D2E0130FD02031DAA2EAB2E46
:103D5400722E7C08F3007B08F2007A08F1007908DF
:103D6400F000080083160313AB000A168A15032318
:103D74000A168A1590300A168A1537230A168A15E8
:103D8400831603132B080A168A1537230A168A1575
:103D94000A168A1517230A168A1591300A168A15E7
:103DA40037230A168A1500300A168A1595230A162F
:103DB4008A1583160313A500A6012508A700260863
:103DC400A80001300A168A1595230A168A15831647
:103DD4000313A500A6012508A9002608AA000A16AF
:103DE4008A150D230A168A15831603132808A600BC
:103DF4002708A5002508A600A50129082507831280
:103E04000313E600831603132A0803182A0A260755
:103E140083120313E7000A168A11CA200A168A15A8
:103E2400831203136908EF006808EE006708ED00C9
:103E34006608EC00080083120313A101F81F232F66
:103E4400242F2B2FF709F809F70A0319F80AA101FF
:103E5400A10AFA1F2E2F2F2F382FF909FA09F90A70
:103E64000319FA0A0130FB007B08A106A201A30191
:103E74007708780403193F2F402F772FA001A00A59
:103E84004E2F01300310F70DF80DFF3E031D442F94
:103E94000130FB007B08A007F81F512F522F432F3E
:103EA40001300310A20DA30DFF3E031D532F78080C
:103EB4007A02031D5F2F77087902031C622F632F98
:103EC4006A2F7708F9027808031CFA03FA0222140D
:103ED40001300310F80CF70CFF3E031D6B2F01306B
:103EE400A002031D762F772F522F210803197B2F51
:103EF4007C2F812FA209A309A20A0319A30A23086C
:103F0400F8002208F7000800F2007208043E84005A
:103F1400831300188E2F922F831203130816952FE4
:103F24008312031308127208053E840083130018D9
:103F34009C2FA02F831203138816A32F831203131D
:103F440088127208063E840083130018AA2FAE2F2D
:103F5400831203130817B12F831203130813720873
:103F6400073E840083130018B82FBC2F8312031359
:103F74008817BF2F8312031388130A168A154D233B
:103F84000A168A157208840083130018CA2FCE2FCC
:103F9400831203130816D12F831203130812720A13
:103FA400840083130018D72FDB2F83120313881682
:103FB400DE2F8312031388127208023E84008313D7
:103FC4000018E52FE92F831203130817EC2F83122F
:103FD400031308137208033E840083130018F32F9D
:103FE400F72F831203138817FA2F831203138813EE
:0C3FF4000A168A154D230A168A150800CB
:04400E00D4EFFFFFED
:00000001FF
